:1070000055C000006EC000006CC000006AC00000E7
:1070100068C0000066C0000064C0000062C00000DC
:1070200060C000005EC00000D7C400005AC000006D
:1070300058C0000056C0000054C0000052C00000FC
:1070400050C000004EC000004CC000004AC000000C
:1070500049C0000046C0000044C0000042C000001B
:1070600040C000003EC000003CC000003AC000002C
:1070700038C0000036C0000034C0000032C000003C
:1070800030C000002EC000002CC000002AC000004C
:1070900028C0000026C0000024C0000022C000005C
:1070A00020C000001EC000001CC0000011241FBE34
:1070B000CFEFDAE0DEBFCDBF11E0A0E0B1E0ECEF52
:1070C000FEE702C005900D92AC38B107D9F711E088
:1070D000ACE8B1E001C01D92AD39B107E1F778D05D
:1070E0000BC78ECF1F920F920FB60F9211240F90E5
:1070F0000FBE0F901F90189584E08093E9000DC09B
:107100008091E8008B778093E80003C08EB38823DA
:1071100051F08091E80082FFF9CF8091E80085FF6F
:10712000EFCF8091F1000895982F83E08093E900DC
:107130008091E80085FD0DC08091E8008E778093F6
:10714000E80003C08EB3882331F08091E80080FF0F
:10715000F9CF9093F100089590919501892F8F7741
:10716000813249F5809196018032A1F0813219F582
:10717000913A09F58091E800877F8093E80088E0E4
:1071800091E067E070E0D9D48091E8008B7780933C
:10719000E8000895913279F48091E800877F809328
:1071A000E80088E091E067E070E02BD58091E8008E
:1071B0008E778093E800089582E061EC42E083D30B
:1071C00083E061E842E17FD384E060E842E17BC391
:1071D0002F923F924F925F926F927F928F929F92E7
:1071E000AF92BF92CF92DF92EF92FF920F931F93D5
:1071F000DF93CF93CDB7DEB72A970FB6F894DEBFF3
:107200000FBECDBF24B714BE80916000886180930B
:1072100060001092600030E0F901E270F07021FD32
:107220000AC0859194918F5F9F4F29F0E0918D0165
:10723000F0918E01099584B7877F84BF88E10FB6EE
:10724000F89480936000109260000FBE80E090E0A0
:1072500020E80FB6F89420936100809361000FBE80
:1072600011E015BF82E085BF9FD310936F0083E0CC
:1072700080938100789444245524320179E0272EAC
:10728000E0E0F0E08591949198878F8388C294E044
:107290009093E9008091E80082FF5FC210928C0118
:1072A0002BDF182F853419F410920F0103C0843599
:1072B00019F422DF8DE027C28C34E1F38035D1F35D
:1072C000843721F484E430DF80E01DC2813611F47C
:1072D00089E519C2813401F50FDF880F8C831B8289
:1072E000AB81BC817D010027F7FC0095102FE09257
:1072F0008F01F09290010093910110939201FCDEB6
:1073000090E0880F991FAA2797FDA095BA2F8E2984
:107310009F29A02BB12BC8C1803711F483E5F3C19D
:10732000833559F400E011E0F80181918F01FCDE12
:10733000F1E007301F07C1F7E7C1863521F481E38B
:10734000F3DE80E3E0C1833731F487E8EDDE85E9E1
:10735000EBDE8EE1D8C18536B9F4E0E0F0E023E061
:1073600020935700E89507B600FCFDCF35E0309339
:107370005700E89507B600FCFDCFE058FF4F80E7C7
:10738000E030F80761F796CF8C3649F4B5DE80958A
:10739000E1E0F0E0082E20925700E8958BCF82378D
:1073A00031F4E1E0F0E0209257008491ACC18634E2
:1073B00031F4E0E0F0E0209257008491A4C18E34D3
:1073C00031F4E3E0F0E02092570084919CC18135D4
:1073D00031F4E2E0F0E020925700849194C18236CB
:1073E00031F489E5A1DE80E09FDE80E88CC1823443
:1073F00019F0873609F0ECC07FDE082F7DDEF82E0D
:107400007BDE882E8554823008F07CC10A83198285
:107410002F2D30E089819A81282B392B3A872987B3
:10742000173609F050C091E190935700E895DD249C
:1074300044C0E0908F01F090900100919101109173
:107440009201A6E48A16E1F4ED2DF0E0EE29FF2981
:10745000E4918E2F69DEDD2081F082E090E0A0E0F3
:10746000B0E0E80EF91E0A1F1B1FE0928F01F09298
:107470009001009391011093920191E0D92618C0D8
:10748000D801C701B695A795979587951FD54CDE6E
:1074900082E090E0A0E0B0E0E80EF91E0A1F1B1F9A
:1074A000E0928F01F092900100939101109392016C
:1074B000A985BA851197BA87A987E985FA85EF2B3F
:1074C00009F0B7CF21C1A0908F01B0909001C0907A
:1074D0009101D0909201F6E48F1609F065C023E087
:1074E000F50120935700E89507B600FCFDCF5CC07E
:1074F00036E4831681F5992049F1E0908F01F090F0
:1075000090010091910110919201F6DD8E831D8210
:10751000832D90E0AD81BE818A2B9B2B21E0F7016A
:107520000C0120935700E895112482E090E0A0E040
:10753000B0E0E80EF91E0A1F1B1FE0928F01F092C7
:107540009001009391011093920102C0D5DD382E75
:1075500091E0992623C0E0908F01F0909001009176
:1075600091011091920116950795F794E794C4DD67
:10757000682FC701B3D480918F0190919001A091A1
:107580009101B09192010296A11DB11D80938F01CE
:1075900090939001A0939101B0939201A985BA852F
:1075A0001197BA87A98702C033249924E985FA85FF
:1075B000EF2B09F09DCFF6E48F1609F07BCE25E086
:1075C000F50120935700E89507B600FCFDCF72CE79
:1075D000833471F400918F01109190018DDD90E062
:1075E00021E0F8010C0120935700E895112462CEA8
:1075F000833619F5E0908F01F09090010091910190
:107600001091920179DDF701E16090E031E00C0129
:1076100030935700E895112482E090E0A0E0B0E0BC
:10762000E80EF91E0A1F1B1FE0928F01F0929001D5
:1076300000939101109392013DCE8D3661F4E0915B
:107640008F01F091900195E090935700E89507B66F
:1076500000FCFDCF2FCE823551F4E0918F01F091E7
:10766000900105911491812F5FDD802F4CC08434EF
:1076700021F5E0908F01F09090010091910110911F
:10768000920116950795F794E79436DD682FC701A8
:1076900025D480918F0190919001A0919101B0919A
:1076A00092010296A11DB11D80938F0190939001CC
:1076B000A0939101B0939201FDCD843609F5E0903D
:1076C0008F01F09090010091910110919201D801E9
:1076D000C701B695A79597958795F8D325DD82E0E4
:1076E00090E0A0E0B0E0E80EF91E0A1F1B1FE09238
:1076F0008F01F0929001009391011093920104C0C8
:107700008B3111F08FE310DD93E09093E9009091BD
:10771000E8008091E8008E778093E80095FF04C030
:1077200010C08EB38823C9F08091E80080FFF9CFA4
:107730008091E8008E778093E80003C08EB38823A1
:1077400061F08091E80080FFF9CFA4E0A093E90008
:107750008091E8008B778093E800A6D30894411CC1
:10776000511C611C711CB8E24B16BBE05B06B4E017
:107770006B06B0E07B0640F080918C018F5F8093B8
:107780008C0144245524320180918C01873038F0DB
:10779000EF81F885EF5FFF4F11F010920F0180919C
:1077A0000F01882309F073CD8091E0008160809300
:1077B000E0002CE088E190E00FB6F894A895809363
:1077C00060000FBE20936000FFCF9B01AC0107B6A5
:1077D00000FCFDCFF999FECF83E0F90180935700BB
:1077E000E89581E180935700E89508959B01AC01ED
:1077F00007B600FCFDCFF999FECF85E0F901809333
:107800005700E89581E180935700E89508950F931C
:107810001F938B019C0107B600FCFDCFF999FECFA9
:1078200081E0F8010A0180935700E89511241F9127
:107830000F91089521E2FC01209357002491822F9B
:10784000089529E0FC01209357002491822F089588
:10785000E1E0F0E089E08093570084910895982F4B
:1078600007B600FCFDCFF999FECF909589E0E1E0E5
:10787000F0E0092E80935700E8950895FA019230C0
:1078800071F0933089F0913029F480E191E022E1A8
:1078900030E015C080E090E020E030E010C082E2EF
:1078A00091E02EE330E00BC0882329F480E691E0DC
:1078B00024E030E004C084E691E026E230E09183E9
:1078C0008083C90108958093E9008091EB00816075
:1078D0008093EB001092ED006093EC004093ED007C
:1078E0008091EE00881F8827881F08958091950158
:1078F00088238CF403C08EB38823B1F08091E80014
:1079000082FFF9CF8091E8008B778093E80008959B
:107910008EB3882349F08091E80080FFF9CF8091F1
:10792000E8008E778093E8000895EF92FF920F931E
:107930001F9345D04CD008ED10E0F80180818F777F
:10794000808380818068808380818F7D808319BC63
:107950001EBA1092930180EEE82EF12CF70180817F
:107960008B7F8083F80180818160808380E060E08C
:1079700042E0A9DFE1EEF0E080818E7F8083E2EEDD
:10798000F0E0808181608083808188608083F7015E
:1079900080818E7F8083F8018081806180831F9148
:1079A0000F91FF90EF900895E7EDF0E08081816006
:1079B000808384E082BF81E080939401B6CFE8EDBC
:1079C000F0E080818E7F80831092E2000895109213
:1079D000DA001092E10008951F920F920FB60F92F5
:1079E00011242F933F934F935F936F937F938F93C4
:1079F0009F93AF93BF93EF93FF938091DA0080FF43
:107A00001BC08091D80080FF17C08091DA008E7F64
:107A10008093DA008091D90080FF0BC080E189BD9E
:107A200082E189BD09B400FEFDCF81E08EBB3BD26F
:107A300003C019BC1EBA37D28091E10080FF17C085
:107A40008091E20080FF13C08091E2008E7F8093DE
:107A5000E2008091E20080618093E2008091D80092
:107A600080628093D80019BC85E08EBB1CD28091C7
:107A7000E10084FF2CC08091E20084FF28C080E1F7
:107A800089BD82E189BD09B400FEFDCF8091D80097
:107A90008F7D8093D8008091E1008F7E8093E100FC
:107AA0008091E2008F7E8093E2008091E20081600D
:107AB0008093E20080919301882331F48091E30068
:107AC00087FD02C081E001C084E08EBBECD18091D3
:107AD000E10083FF21C08091E20083FF1DC08091FF
:107AE000E100877F8093E10082E08EBB10929301DA
:107AF0008091E1008E7F8093E1008091E2008E7F93
:107B00008093E2008091E20080618093E20080E057
:107B100060E042E0D8DEC7D1FF91EF91BF91AF9115
:107B20009F918F917F916F915F914F913F912F9195
:107B30000F900FBE0F901F9018959C0140919B01D4
:107B400050919C014617570718F4F90190E044C082
:107B50006115710511F0AB01F8CF8091E8008E77C7
:107B60008093E80040E050E0F0CF8EB3882309F422
:107B700044C0853009F443C08091E80083FF02C00F
:107B800081E008958091E80082FD31C08091E80095
:107B900080FF22C08091F3009091F200782F60E086
:107BA000292F30E0262B372B07C081918093F100DD
:107BB000415050402F5F3F4F4115510519F028307B
:107BC000310598F390E02830310509F491E0809177
:107BD000E8008E778093E8004115510531F699232E
:107BE00021F605C08EB3882341F0853041F08091A5
:107BF000E80082FFF7CF80E0089582E0089583E0F7
:107C000008959C016115710529F48091E8008B7736
:107C10008093E800F90126C08EB3882391F1853066
:107C200091F18091E80083FF02C081E00895809186
:107C3000E80082FFF1CF06C08091F100819361508E
:107C4000704059F02091F3008091F200322F20E033
:107C500090E0822B932B892B79F78091E8008B772A
:107C60008093E80061157105B9F605C08EB38823CD
:107C700041F0853041F08091E80080FFF7CF80E04F
:107C8000089582E0089583E008950F931F93DF9392
:107C9000CF9300D0CDB7DEB7E5E9F1E08091F100F8
:107CA000819381E0ED39F807C9F756DA8091E80051
:107CB00083FFE4C08091950190919601953009F47D
:107CC0006DC0963040F4913081F1913070F0933076
:107CD00009F0D4C02AC0983009F4A3C0993009F43F
:107CE000B2C0963009F0CAC07CC0803809F4C6C062
:107CF000823809F0C3C0809199018F708093E900A8
:107D00008091EB001092E9002091E800277F2093FA
:107D1000E80090E025E0969587952A95E1F7817037
:107D20008093F1001092F10087C0882319F082300F
:107D300009F0A4C08F71823009F0A0C08091970132
:107D4000882331F5209199012F7009F497C0209371
:107D5000E9008091EB0080FF1BC0933021F48091FB
:107D6000EB00806213C08091EB0080618093EB0098
:107D700081E090E002C0880F991F2A95E2F7809376
:107D8000EA001092EA008091EB0088608093EB009B
:107D90001092E9008091E800877F51C0882309F0A4
:107DA0006DC0109197011F770FB7F8948091E8008C
:107DB000877F8093E8009ADD8091E80080FFFCCF08
:107DC0008091E3008078812B8093E300806880932A
:107DD000E300112311F482E001C083E08EBB0FBFEA
:107DE0004DC08058823008F049C080919701909131
:107DF000980160919901AE014F5F5F4F3FDDBC017B
:107E0000009709F43BC08091E800877F8093E800E9
:107E100089819A8192DE8091E8008B778093E800D7
:107E20002DC0803859F58091E800877F8093E80065
:107E3000809193018093F1008091E8008E77809388
:107E4000E80054DD1BC08823C9F49091970192305B
:107E5000A8F48091E800877F8093E80090939301D5
:107E600045DD80919301882331F48091E30087FD03
:107E700002C081E001C084E08EBB9ED98091E80001
:107E800083FF0AC08091EB0080628093EB008091B9
:107E9000E800877F8093E8000F900F90CF91DF91EB
:107EA0001F910F91089508951F938EB3882361F059
:107EB0001091E9001092E9008091E80083FF01C071
:107EC000E4DE1F701093E9001F910895F999FECF29
:107ED00092BD81BDF89A992780B50895262FF9990A
:107EE000FECF1FBA92BD81BD20BD0FB6F894FA9A9D
:0C7EF000F99A0FBE01960895F894FFCF98
:107EFC004C5546414344430000000000000008017B
:107F0C0012011001020000084F1B070000010001C4
:107F1C00000109023E000201008032090400000148
:107F2C0002020100052400100104240206052406A7
:107F3C000001070582030800FF09040100020A0082
:107F4C000000070504021000010705830210000160
:107F5C00040309042603410056005200200043008C
:107F6C0044004300200042006F006F0074006C005E
:0C7F7C006F0061006400650072000000EE
:107FE000F4CB04CC14CC26CC2CCC32CC38CC000036
:107FF0000000000000000000000000000000FBDCAA
:040000030000700089
:00000001FF
