:1070000055C000008AC0000088C0000086C0000093
:1070100084C0000082C0000080C000007EC000006C
:107020007CC000007AC0000070C5000076C000007F
:1070300074C0000072C0000070C000006EC000008C
:107040006CC000006AC0000068C0000066C000009C
:1070500065C0000062C0000060C000005EC00000AB
:107060005CC000005AC0000058C0000056C00000BC
:1070700054C0000052C0000050C000004EC00000CC
:107080004CC000004AC0000048C0000046C00000DC
:1070900044C0000042C0000040C000003EC00000EC
:1070A0003CC000003AC0000038C0000011241FBEE0
:1070B000CFEFDAE0DEBFCDBF04B603FE19C080918A
:1070C000A0019091A10182549C4D91F484B7877FD7
:1070D00084BF88E10FB6F89480936000109260003E
:1070E0000FBE1092A1011092A001E0E0F0E009951E
:1070F00011E0A0E0B1E0E0EEFEE702C005900D92E5
:10710000A239B107D9F711E0A2E9B1E001C01D929F
:10711000A03AB107E1F778D0E1C672CF1F920F9283
:107120000FB60F9211240F900FBE0F901F9018955D
:1071300084E08093E9000DC08091E8008B77809314
:10714000E80003C08EB3882351F08091E80082FFED
:10715000F9CF8091E80085FFEFCF8091F10008958D
:10716000982F83E08093E9008091E80085FD0DC0B1
:107170008091E8008E778093E80003C08EB3882367
:1071800031F08091E80080FFF9CF9093F1000895ED
:1071900090919801892F8F77813249F580919901DB
:1071A0008032A1F0813219F5913A09F58091E80019
:1071B000877F8093E80088E091E067E070E06ED31D
:1071C0008091E8008B778093E8000895913279F4FC
:1071D0008091E800877F8093E80088E091E067E095
:1071E00070E0C0D38091E8008E778093E800089526
:1071F00082E061EC42E0FAD383E061E842E1F6D359
:1072000084E060E842E1F2C32F923F924F925F9296
:107210006F927F928F929F92AF92BF92CF92DF92A6
:10722000EF92FF920F931F93DF93CF9300D000D084
:10723000CDB7DEB784B7877F84BF88E10FB6F894F7
:1072400080936000109260000FBE80E090E020E824
:107250000FB6F89420936100809361000FBE11E097
:1072600015BF82E085BF34D410936F0083E0809314
:107270008100789479E0672E6AC224E02093E900C7
:107280008091E80082FF62C253DF182F853419F421
:1072900010920F0106C08857823010F0143519F48F
:1072A00047DF8DE029C21035E1F31C34D1F31437E8
:1072B00021F484E455DF80E01FC2113611F489E522
:1072C0001BC21134F1F434DF382E330C2224710147
:1072D0000027F7FC0095102FE0929201F0929301A5
:1072E000009394011093950123DF90E0880F991F7C
:1072F000AA2797FDA095BA2F8E299F29A02BB12BE5
:10730000CCC1103711F483E5F7C1133559F400E00F
:1073100011E0D8018D918D0123DFB1E007301B070B
:10732000C1F7EBC1163521F481E31ADF80E3E4C134
:10733000133731F487E814DF85E912DF8EE1DCC111
:107340001536B9F4E0E0F0E023E020935700E8952B
:1073500007B600FCFDCF35E030935700E89507B63F
:1073600000FCFDCFE058FF4F80E7E030F80761F701
:1073700098CF1C3649F4DCDE8095E1E0F0E0082E81
:1073800060925700E8958DCF123731F4E1E0F0E0DC
:10739000609257008491B0C1163431F4E0E0F0E01F
:1073A000609257008491A8C11E3431F4E3E0F0E00C
:1073B000609257008491A0C1113531F4E2E0F0E011
:1073C00060925700849198C1123631F489E5C8DE85
:1073D00080E0C6DE80E890C1123419F0173609F05B
:1073E000F0C0A6DE082FA4DEF82EA2DE882E85547B
:1073F000823008F080C10A8319822F2D30E0898104
:107400009A81282B392B3C832B83173609F053C0E4
:1074100091E190935700E895DD2447C0E0909201F8
:10742000F09093010091940110919501A6E48A16C1
:10743000F9F4ED2DF0E0EE29FF29E4918E2F90DE96
:10744000DD2081F082E090E0A0E0B0E0E80EF91EDF
:107450000A1F1B1FE0929201F09293010093940186
:107460001093950180E0DD2009F481E0D82E18C04A
:10747000D801C701B695A7959795879519D570DE60
:1074800082E090E0A0E0B0E0E80EF91E0A1F1B1FAA
:10749000E0929201F0929301009394011093950170
:1074A000AB81BC811197BC83AB83EB81FC81EF2B5B
:1074B00009F0B4CF22C1A0909201B0909301C09086
:1074C0009401D0909501F6E48F1609F066C023E090
:1074D000F50120935700E89507B600FCFDCF5DC08D
:1074E00036E4831689F5992039F1E0909201F09005
:1074F000930100919401109195011ADE582E4424B5
:10750000872D90E08429952921E0F7010C01209333
:107510005700E895112482E090E0A0E0B0E0E80E8A
:10752000F91E0A1F1B1FE0929201F0929301009333
:1075300094011093950102C0FBDD782E80E0992024
:1075400009F481E0982E23C0E0909201F09093011D
:10755000009194011091950116950795F794E79481
:10756000E7DD682FC701ACD480919201909193011F
:10757000A0919401B09195010296A11DB11D809337
:10758000920190939301A0939401B0939501AB81E4
:10759000BC811197BC83AB8302C077249924EB8113
:1075A000FC81EF2B09F09CCFF6E48F1609F079CE21
:1075B00025E0F50120935700E89507B600FCFDCFC4
:1075C00070CE133471F40091920110919301B0DDEB
:1075D00090E021E0F8010C0120935700E895112478
:1075E00060CE133619F5E0909201F090930100916E
:1075F0009401109195019CDDF701E16090E031E08C
:107600000C0130935700E895112482E090E0A0E04F
:10761000B0E0E80EF91E0A1F1B1FE0929201F092E3
:10762000930100939401109395013BCE1D3661F4B4
:10763000E0919201F091930195E090935700E895C5
:1076400007B600FCFDCF2DCE123551F4E09192012A
:10765000F091930105911491812F82DD802F4CC010
:10766000143421F5E0909201F0909301009194017F
:107670001091950116950795F794E79459DD682FB9
:10768000C7011ED48091920190919301A091940121
:10769000B09195010296A11DB11D80939201909326
:1076A0009301A0939401B0939501FBCD143609F595
:1076B000E0909201F0909301009194011091950156
:1076C000D801C701B695A79597958795F1D348DD61
:1076D00082E090E0A0E0B0E0E80EF91E0A1F1B1F58
:1076E000E0929201F092930100939401109395011E
:1076F00004C01B3111F08FE333DD93E09093E90078
:107700009091E8008091E8008E778093E80095FFE3
:1077100004C010C08EB38823C9F08091E80080FFB8
:10772000F9CF8091E8008E778093E80003C08EB394
:10773000882361F08091E80080FFF9CFA4E0A09356
:10774000E9008091E8008B778093E8009DD38091D9
:107750000F01882309F091CD8091E0008160809332
:10776000E00082E49CED9093A1018093A0012CE0C5
:1077700088E190E00FB6F894A895809360000FBE62
:1077800020936000FFCFFA01923039F0933051F02E
:107790009130E9F480E191E017C082E291E02EE3BC
:1077A00030E019C0882329F480E691E024E030E03D
:1077B00012C0813029F484E691E028E130E00BC06A
:1077C000823029F48EE791E022E130E004C080E0CD
:1077D00090E020E030E091838083C90108959B010F
:1077E000AC0107B600FCFDCFF999FECF83E0F901AB
:1077F00080935700E89507B600FCFDCF81E18093A8
:107800005700E89508959B01AC0107B600FCFDCF39
:10781000F999FECF85E0F90180935700E89507B606
:1078200000FCFDCF81E180935700E89508950F9308
:107830001F938B019C0107B600FCFDCFF999FECF89
:1078400081E0F8010A0180935700E89511241F9107
:107850000F91089521E2FC01209357002491822F7B
:10786000089529E0FC01209357002491822F089568
:10787000E1E0F0E089E08093570084910895982F2B
:1078800007B600FCFDCFF999FECF909589E0E1E0C5
:10789000F0E0092E80935700E89508959C014091EF
:1078A0009E0150919F014617570718F4F90190E087
:1078B00044C06115710511F0AB01F8CF8091E8006B
:1078C0008E778093E80040E050E0F0CF8EB38823BD
:1078D00009F444C0853009F443C08091E80083FF77
:1078E00002C081E008958091E80082FD31C080915E
:1078F000E80080FF22C08091F3009091F200782F81
:1079000060E0292F30E0262B372B07C08191809330
:10791000F100415050402F5F3F4F4115510519F084
:107920002830310598F390E02830310509F491E0D2
:107930008091E8008E778093E8004115510531F67B
:10794000992321F605C08EB3882341F0853041F09C
:107950008091E80082FFF7CF80E0089582E00895EB
:1079600083E008959C016115710529F48091E80078
:107970008B778093E800F90126C08EB3882391F1BC
:10798000853091F18091E80083FF02C081E0089585
:107990008091E80082FFF1CF06C08091F1008193D1
:1079A0006150704059F02091F3008091F200322F25
:1079B00020E090E0822B932B892B79F78091E800CF
:1079C0008B778093E80061157105B9F605C08EB319
:1079D000882341F0853041F08091E80080FFF7CFA7
:1079E00080E0089582E0089583E008958F70809389
:1079F000E9008091EB0081608093EB001092ED0034
:107A00006093EC004093ED008091EE00881F882782
:107A1000881F08958091980188238CF403C08EB349
:107A20008823B1F08091E80082FFF9CF8091E800CF
:107A30008B778093E80008958EB3882349F0809176
:107A4000E80080FFF9CF8091E8008E778093E8000E
:107A50000895EF92FF920F931F934AD051D008EDF3
:107A600010E0F80180818F77808380818068808337
:107A700080818F7D808319BC1EBA1092960180EEA2
:107A8000E82EF12CF70180818B7F8083F8018081C3
:107A90008160808380E060E042E0A8DFE1EEF0E01A
:107AA00080818E7F8083E2EEF0E080818160808340
:107AB000808188608083F70180818E7F8083F801D8
:107AC0008081806180831F910F91FF90EF900895D6
:107AD000E8EDF0E080818F7E8083E7EDF0E080814B
:107AE0008160808384E082BF81E080939701B1CF81
:107AF000E8EDF0E080818E7F80831092E2000895AF
:107B00001092DA001092E10008951F920F920FB6C2
:107B10000F9211242F933F934F935F936F937F9313
:107B20008F939F93AF93BF93EF93FF938091DA006E
:107B300080FF1BC08091D80080FF17C08091DA00C1
:107B40008E7F8093DA008091D90080FF0BC080E1A6
:107B500089BD82E189BD09B400FEFDCF81E08EBB05
:107B600092D103C019BC1EBA8ED18091E10080FF72
:107B700017C08091E20080FF13C08091E2008E7FE9
:107B80008093E2008091E20080618093E200809126
:107B9000D80080628093D80019BC85E08EBB73D179
:107BA0008091E10084FF2CC08091E20084FF28C016
:107BB00080E189BD82E189BD09B400FEFDCF8091DD
:107BC000D8008F7D8093D8008091E1008F7E8093D4
:107BD000E1008091E2008F7E8093E2008091E200DC
:107BE00081608093E20080919601882331F4809136
:107BF000E30087FD02C081E001C084E08EBB43D179
:107C00008091E10083FF21C08091E20083FF1DC0CD
:107C10008091E100877F8093E10082E08EBB10922B
:107C200096018091E1008E7F8093E1008091E200D7
:107C30008E7F8093E2008091E20080618093E20079
:107C400080E060E042E0D2DE1ED1FF91EF91BF9173
:107C5000AF919F918F917F916F915F914F913F91E4
:107C60002F910F900FBE0F901F9018951F93DF93C9
:107C7000CF9300D0CDB7DEB7E8E9F1E08091F10015
:107C8000819381E0E03AF807C9F782DA8091E80051
:107C900083FFE5C08091980190919901953009F496
:107CA0006FC0963040F4913091F1913070F0933084
:107CB00009F0D5C02CC0983009F4A4C0993009F45B
:107CC000B3C0963009F0CBC07DC0803811F490E08D
:107CD00014C0823809F0C3C080919C018F708093DA
:107CE000E9008091EB0090E025E0969587952A9534
:107CF000E1F7982F91701092E9008091E800877F5A
:107D00008093E8009093F1001092F10086C08823E0
:107D100019F0823009F0A3C08F71823009F09FC042
:107D200080919A01882331F520919C012F7009F4EC
:107D300096C02093E9008091EB0080FF1BC0933038
:107D400021F48091EB00806213C08091EB00806190
:107D50008093EB0081E090E002C0880F991F2A9584
:107D6000E2F78093EA001092EA008091EB008860CD
:107D70008093EB001092E9008091E800877F50C06B
:107D8000882309F06CC010919A011F778091E3005D
:107D90008078812B8093E3008091E800877F809337
:107DA000E80038DE8091E80080FFFCCF8091E3009E
:107DB00080688093E300112311F482E001C083E026
:107DC0008EBB4DC08058823008F049C080919A0126
:107DD00090919B0160919C01AE014F5F5F4FD3DC9E
:107DE000BC01009709F43BC08091E800877F809335
:107DF000E80089819A8152DD8091E8008B77809339
:107E0000E8002DC0803859F58091E800877F809385
:107E1000E800809196018093F1008091E8008E77D0
:107E20008093E800F7DD1BC08823C9F490919A0184
:107E30009230A8F48091E800877F8093E8009093C7
:107E40009601E8DD80919601882331F48091E3006A
:107E500087FD02C081E001C084E08EBBC9D980915A
:107E6000E80083FF0AC08091E800877F8093E800E4
:107E70008091EB0080628093EB000F900F90CF9188
:107E8000DF911F91089508951F938EB3882371F099
:107E90001091E9008091EC001092E9008091E800D7
:107EA00083FF01C0E3DE1F701093E9001F91089566
:107EB000F999FECF92BD81BDF89A992780B50895B2
:107EC000262FF999FECF1FBA92BD81BD20BD0FB6F6
:107ED000F894FA9AF99A0FBE01960895F894FFCF94
:107EE0004C55464143444300000000000000080197
:107EF00012011001020000084F1B070000010102DF
:107F0000000109023E000201008032090400000164
:107F100002020100052400100104240200052406C9
:107F20000001070582030800FF09040100020A009E
:107F30000000070504021000050705830210000574
:107F40000403090418034400650061006E0020006A
:107F5000430061006D0065007200610000001203C3
:107F60004C005500460041002000430044004300FF
:027F700000000F
:107FA0001ECC31CC44CC56CC5CCC62CC68CC089591
:087FB000089508950895089555
:107FE000DFCFDFCFDFCFDFCFDFCFDFCFDFCFDFCF21
:087FF000DFCFDFCFDFCFDFCFD1
:087FF8000070000000DFFBDC5B
:040000030000700089
:00000001FF
