:100000000C9456000C9460000C9460000C946000FA
:100010000C9460000C9460000C9460000C946000E0
:100020000C9460000C9460000C9460000C946000D0
:100030000C9460000C9460000C9460000C946000C0
:100040000C9460000C9460000C9460000C946000B0
:100050000C9460000C9460000C9460000C946000A0
:100060000C9460000C9460000C9460000C94600090
:100070000C9460000C9460000C9460000C94600080
:100080000C9460000C9460000C9460000C94600070
:100090000C9460000C9460000C9460000C94600060
:1000A0000C9460000C9460000C94600011241FBE3E
:1000B000CFEFDAE0DEBFCDBF0E9462000C94820079
:1000C0000C940000559A5D9A80E197E220E931E0B6
:1000D000F9013197F1F70197D9F75D9820E137E2FF
:1000E00060E240E951E005C0CA010197F1F72150F3
:1000F000304021153105C1F78BB186278BB920E13E
:0801000037E2F2CFF894FFCFC3
:00000001FF
