:100000009BC00000B4C00000B2C00000B0C000003F
:10001000AEC00000ACC00000AAC00000A8C0000034
:10002000A6C00000A4C00000FAC10000A0C00000EB
:100030009EC000009CC000009AC0000098C0000054
:1000400096C0000094C0000092C0000090C0000064
:100050008EC000008CC000008AC0000088C0000074
:1000600086C0000084C0000082C0000080C0000084
:100070007EC000007CC000007AC0000078C0000094
:1000800076C0000074C0000072C0000070C00000A4
:100090006EC000006CC000006AC0000068C00000B4
:1000A00066C0000064C0000062C0000012011001C0
:1000B000020000084F1B070001000102DC010902D9
:1000C0003E00020100C032090400000102020100EA
:1000D000052400100104240206052406000107057A
:1000E00082030800FF09040100020A00000007055E
:1000F0000402100001070583021000010403090433
:1001000018034400650061006E0020004300610098
:100110006D0065007200610000001C034C0055007A
:1001200046004100200043004400430020004400FA
:1001300065006D006F00000011241FBECFEFDAE0F4
:10014000DEBFCDBF11E0A0E0B1E0E8E8FFE002C013
:1001500005900D92A831B107D9F711E0A8E1B1E0FF
:1001600001C01D92A334B107E1F728D00BC748CFD7
:100170000895089580E091E084C580E091E031C564
:1001800084B7877F84BF88E10FB6F89480936000BE
:10019000109260000FBE80E090E020E80FB6F89467
:1001A00020936100809361000FBEFC01EA5DFE4F69
:1001B0001082019680319105C1F719C1E1DF80E01D
:1001C00091E068E171E077D4789486E291E061E0B3
:1001D00070E040E150E028E131E0FAD5AC01009751
:1001E00039F086E291E061E070E028E131E01ED66E
:1001F00080E091E0B2D411D4E8CFDA01923049F036
:10020000933061F09130F9F4ECEAF0E022E130E073
:100210001EC0EEEBF0E02EE330E019C0813049F073
:10022000813018F0823079F408C0ECEFF0E084916E
:1002300007C0E0E0F1E0849103C0EAE1F1E08491DD
:10024000282F30E004C0E0E0F0E020E030E0ED9363
:10025000FC93C9010895382F282F2CC02093E90062
:10026000231721F4762F942F50E006C07091EC00F4
:100270009091ED005091F00091FF1BC08091EB0038
:100280008E7F8093EB008091ED008D7F8093ED0059
:100290008091EB0081608093EB007093EC00909371
:1002A000ED005093F0008091EE0087FD02C080E0E9
:1002B00008952F5F273090F23093E90081E0089590
:1002C00080913B0188239CF404C080913A018823EB
:1002D000B9F08091E80082FFF8CF8091E8008B7739
:1002E0008093E800089580913A01882349F0809135
:1002F000E80080FFF8CF8091E8008E778093E800D7
:1003000008954091E4005091E50024E68091EC00CE
:1003100080FF24C08091E80080FD1EC080913A01DA
:10032000882311F482E00895853011F483E0089564
:100330008091EB0085FF02C081E008958091E40088
:100340009091E5008417950709F3222311F484E0C6
:1003500008952150AC01DACF80E008958091E80043
:1003600082FFDCCFF9CFEF92FF920F931F934AD019
:1003700051D008ED10E0F80180818F778083808173
:100380008068808380818F7D808319BC10923A01C0
:1003900010923601109238011092370180EEE82E4B
:1003A000F12CF70180818B7F8083F801808181604F
:1003B000808380E060E042E04EDFE1EEF0E08081AB
:1003C0008E7F8083E2EEF0E0808181608083808197
:1003D00088608083F70180818E7F8083F80180812F
:1003E000806180831F910F91FF90EF900895E7ED5A
:1003F000F0E080818160808384E082BF81E080932F
:100400003901B1CFE8EDF0E080818E7F80831092DA
:10041000E20008951092DA001092E10008951F9210
:100420000F920FB60F9211242F933F934F935F9328
:100430006F937F938F939F93AF93BF93EF93FF93AC
:100440008091E10082FF0AC08091E20082FF06C035
:100450008091E1008B7F8093E100DED28091DA0011
:1004600080FF1DC08091D80080FF19C08091DA0004
:100470008E7F8093DA008091D90080FF0CC080E1EC
:1004800089BD82E189BD09B400FEFDCF81E0809382
:100490003A016EDE04C019BC10923A016ADE809106
:1004A000E10080FF18C08091E20080FF14C08091BD
:1004B000E2008E7F8093E2008091E2008061809371
:1004C000E2008091D80080628093D80019BC85E05A
:1004D00080933A01A1D28091E10084FF2DC08091E8
:1004E000E20084FF29C080E189BD82E189BD09B4B1
:1004F00000FEFDCF8091D8008F7D8093D800809141
:10050000E1008F7E8093E1008091E2008F7E8093F6
:10051000E2008091E20081608093E20080913601E8
:10052000882331F48091E30087FD02C081E001C09F
:1005300084E080933A0170D28091E10083FF22C071
:100540008091E20083FF1EC08091E100877F80934D
:10055000E10082E080933A01109236018091E1003F
:100560008E7F8093E1008091E2008E7F8093E20095
:100570008091E20080618093E20080E060E042E0F0
:100580006ADE4AD2FF91EF91BF91AF919F918F9117
:100590007F916F915F914F913F912F910F900FBE7F
:1005A0000F901F9018959C0140914101509142017C
:1005B0004617570718F4F90190E045C06115710519
:1005C00011F0AB01F8CF8091E8008E778093E800BE
:1005D00040E050E0F0CF80913A01882309F445C013
:1005E000853009F444C08091E80083FF02C081E0B7
:1005F00008958091E80082FD32C08091E80080FF7C
:1006000022C08091F3009091F200782F60E0292FB2
:1006100030E0262B372B07C081918093F1004150A9
:1006200050402F5F3F4F4115510519F028303105DB
:1006300098F390E02830310509F491E08091E800CA
:100640008E778093E8004115510529F6992319F614
:1006500006C080913A01882341F0853041F08091B5
:10066000E80082FFF6CF80E0089582E0089583E0FD
:1006700008959C014091410150914201461757074E
:1006800018F4F90190E046C06115710511F0AB0155
:10069000F8CF8091E8008E778093E80040E050E04A
:1006A000F0CF80913A01882309F447C0853009F4DE
:1006B00046C08091E80083FF02C081E008958091E8
:1006C000E80082FD34C08091E80080FF23C0809163
:1006D000F3009091F200782F60E0292F30E0262B74
:1006E000372B08C084918093F100319641505040DF
:1006F0002F5F3F4F4115510519F02830310590F318
:1007000090E02830310509F491E08091E8008E777F
:100710008093E8004115510521F6992309F0C1CFD6
:1007200006C080913A01882341F0853041F08091E4
:10073000E80082FFF6CF80E0089582E0089583E02C
:1007400008950F931F93DF93CF93CDB7DEB7AC9788
:100750000FB6F894DEBF0FBECDBFEBE3F1E08091A2
:10076000F100819321E0E334F207C9F703DD8091C2
:10077000E80083FF38C180913B0130913C01353066
:1007800009F487C0363040F43130C9F1313070F0AF
:10079000333009F028C133C0383009F4F6C039309D
:1007A00009F405C1363009F01EC197C0803821F028
:1007B000823809F018C108C0909137018091380142
:1007C000882399F0926011C080913F018F708093CF
:1007D000E9008091EB0090E025E0969587952A95B9
:1007E000E1F7982F91701092E9008091E800877FDF
:1007F0008093E8009093F1001092F100D1C088231B
:1008000019F0823009F0EFC090E08F71907000977E
:1008100021F0029709F0E7C00CC080913D018130C2
:1008200009F0E1C010923801333069F58093380146
:100830002AC080913D01882331F520913F012F701E
:1008400009F4D1C02093E9008091EB0080FF1BC028
:10085000333021F48091EB00806213C08091EB0073
:1008600080618093EB0081E090E002C0880F991FC7
:100870002A95E2F78093EA001092EA008091EB005B
:1008800088608093EB001092E9008091E800877FF8
:100890008AC0882309F0A7C010913D011F770FB7C8
:1008A000F8948091E800877F8093E80009DD8091CB
:1008B000E80080FFFCCF8091E3008078812B80935B
:1008C000E30080688093E300112311F482E001C00B
:1008D00083E080933A010FBF86C08058823008F0D1
:1008E00082C080913D0190913E0123E08C3D9207B2
:1008F00009F033C083E08C838AE28B837FB7F8945E
:10090000DE0115966EE040E050E011E2E62FF0E0E7
:1009100010935700849140FF03C082958F706F5FE2
:100920008F70282F30E08A3018F0C901C79602C0B6
:10093000C901C0968D939D934F5F5F4F4431510520
:1009400029F77FBF8091E800877F8093E800CE0180
:1009500003966AE270E027DE12C060913F01AE01AB
:100960004F5F5F4F4ADCBC01009709F43CC08091A7
:10097000E800877F8093E80089819A817ADE809100
:10098000E8008B778093E8002EC0803861F5809175
:10099000E800877F8093E800809136018093F10022
:1009A0008091E8008E778093E8008ADC1CC0882361
:1009B000D1F490913D019230B0F48091E800877FAE
:1009C0008093E800909336017BDC80913601882388
:1009D00031F48091E30087FD02C081E001C084E032
:1009E00080933A01CADB8091E80083FF0AC08091BE
:1009F000EB0080628093EB008091E800877F80931A
:100A0000E800AC960FB6F894DEBF0FBECDBFCF9115
:100A1000DF911F910F91089508951F9380913A01DE
:100A2000882361F01091E9001092E9008091E800BC
:100A300083FF01C086DE1F701093E9001F910895A7
:100A4000FC0180913A01843091F581899289A389D2
:100A5000B4890097A105B10551F185818093E90022
:100A60008091E80082FF23C04091F3002091F200C2
:100A7000942F80E030E0822B932B892B19F46FEFB9
:100A80007FEF04C08091F100682F70E04091F30087
:100A90002091F200942F80E030E0822B932B892B61
:100AA00041F48091E8008B778093E80002C06FEFFB
:100AB0007FEFCB010895FB012EE0DB011D922A950B
:100AC000E9F723E0238322EE35E0318720872EE605
:100AD00035E033872287958784870895FC018485D4
:100AE0009585AEDF9C0197FF02C02EEF3FEFC90155
:100AF00008950895FC0180913A01843049F5818977
:100B00009289A389B4890097A105B10509F1818172
:100B10008093E9004091F3002091F200942F80E04F
:100B200030E0822B932B892BA9F09091E8008091E3
:100B3000E8008E778093E80095FD0CC0E2DB982FEB
:100B4000882349F48091E8008E778093E80003C001
:100B500092E001C090E0892F0895FC0180913A0154
:100B6000843051F481899289A389B4890097A105C1
:100B7000B10511F0CF01BECF08951F93FC01162FD0
:100B800080913A018430D9F481899289A389B4890A
:100B90000097A105B10599F081818093E9008091CA
:100BA000E80085FD08C08091E8008E778093E8001A
:100BB000A8DB882329F41093F10080E001C082E0D3
:100BC0001F910895282FFB0184859585622FD5DF1D
:100BD000882319F420E030E002C02FEF3FEFC90175
:100BE00008951F93CF93DF93EC010D96FC018BE0EA
:100BF000DF011D928A95E9F711E08981181729F420
:100C00006A817B818C8152E010C08D81181731F48C
:100C10006E817F81888552E030E008C08985181791
:100C200039F56A857B858C8553E030E8882311F49B
:100C300040E001C044E020E088E090E003C02F5F86
:100C4000880F991F86179707D0F3852F90E056E0FD
:100C5000880F991F5A95E1F760E0311161E0682B28
:100C600042602295207F422B812FF5DA882329F0DC
:100C70001F5F173009F0C1CF81E0DF91CF911F9145
:100C80000895CF93DF93EC018091E80083FF9DC02E
:100C9000888190E020913F01309140012817390769
:100CA00009F093C080913C01813269F0823220F4D6
:100CB000803209F08AC03CC0823209F465C08332B8
:100CC00009F083C074C080913B01813A09F07DC076
:100CD0008091E800877F8093E8008091E80080FFA2
:100CE000FCCF89899A89AB89BC898093F100292F2F
:100CF0003A2F4B2F55272093F1009D01442755276C
:100D00002093F1008B2F9927AA27BB278093F1000E
:100D10008D898093F1008E898093F1008F89809373
:100D2000F1008091E8008E778093E800C9DA4DC029
:100D300080913B01813209F048C08091E800877FB3
:100D40008093E8008091E80082FFFCCF8091F10061
:100D50009091F1002091F1003091F100898B9A8BF4
:100D60002B8B3C8B8091F1008D8B8091F1008E8BD1
:100D70008091F1008F8B8091E8008B778093E80061
:100D80009FDACE01B6DE21C080913B018132E9F4C9
:100D90008091E800877F8093E80092DA80913D019E
:100DA00090913E019E878D87CE01A3DE0EC080917B
:100DB0003B01813251F48091E800877F8093E80005
:100DC0007FDACE0160913D0194DEDF91CF910895ED
:100DD000A0E0B0E0EDEEF6E0A4C0FC014B015A014A
:100DE0006901D90113968C9180FF19C07F01C0E081
:100DF000D0E00FC0C6014DD0BFEF8F3F9B0789F0F9
:100E0000F70181937F010F5F1F4F0815190590F3BC
:100E10002196CA15DB0528F400E010E0F6CFC0E00B
:100E2000D0E0CE01CDB7DEB7ECE097C0A0E0B0E0F7
:100E3000EBE1F7E076C0FC014B015A016901D901F1
:100E400013968C9181FF1EC07F01C0E0D0E014C0DA
:100E5000D6011896ED91FC911997D7018C91B601A6
:100E60000995892B89F40894E11CF11C0F5F1F4F31
:100E70000815190568F32196CA15DB0528F400E06A
:100E800010E0F6CFC0E0D0E0CE01CDB7DEB7ECE0A9
:100E900064C0CF93DF93EC014B8140FF1AC046FF43
:100EA0000AC04F7B4B838E819F8101969F838E83E7
:100EB0008A81282F2BC042FF13C0E881F9818081ED
:100EC000282F332727FD30952115310529F440625D
:100ED0004B832FEF3FEF1BC03196F983E88311C09E
:100EE000EA85FB85CE0109959C0197FF0AC09B818D
:100EF0002F5F3F4F11F080E201C080E1892B8B838F
:100F0000E8CF8E819F8101969F838E8330E0C90157
:100F1000DF91CF9108952F923F924F925F926F92FF
:100F20007F928F929F92AF92BF92CF92DF92EF9279
:100F3000FF920F931F93CF93DF93CDB7DEB7CA1BFA
:100F4000DB0B0FB6F894DEBF0FBECDBF09942A8825
:100F5000398848885F846E847D848C849B84AA84CD
:100F6000B984C884DF80EE80FD800C811B81AA815A
:100F7000B981CE0FD11D0FB6F894DEBF0FBECDBF25
:080F8000ED010895F894FFCF84
:100F88000003100000041000000208000000000028
:080F9800000000000000000051
:00000001FF
