:100000009BC00000B4C00000B2C00000B0C000003F
:10001000AEC00000ACC00000AAC00000A8C0000034
:10002000A6C00000A4C00000FEC10000A0C00000E7
:100030009EC000009CC000009AC0000098C0000054
:1000400096C0000094C0000092C0000090C0000064
:100050008EC000008CC000008AC0000088C0000074
:1000600086C0000084C0000082C0000080C0000084
:100070007EC000007CC000007AC0000078C0000094
:1000800076C0000074C0000072C0000070C00000A4
:100090006EC000006CC000006AC0000068C00000B4
:1000A00066C0000064C0000062C0000012011001C0
:1000B000020000084F1B070001000102DC010902D9
:1000C0003E00020100C032090400000102020100EA
:1000D000052400100104240206052406000107057A
:1000E00082030800FF09040100020A00000007055E
:1000F0000402100001070583021000010403090433
:1001000018034400650061006E0020004300610098
:100110006D0065007200610000001C034C0055007A
:1001200046004100200043004400430020004400FA
:1001300065006D006F00000011241FBECFEFDAE0F4
:10014000DEBFCDBF11E0A0E0B1E0E2E6FEE002C01C
:1001500005900D92AC34B107D9F711E0ACE4B1E0F1
:1001600001C01D92A737B107E1F728D078C648CF64
:100170000895089583E391E088C583E391E035C550
:1001800084B7877F84BF88E10FB6F89480936000BE
:10019000109260000FBE80E090E020E80FB6F89467
:1001A00020936100809361000FBEFC01E65AFE4F70
:1001B0001082019680319105C1F71DC10F931F93E5
:1001C000CF93DF93DDDF83E391E06CE471E077D4DC
:1001D0007894C0E0D0E000EA1FE0219687E0C03DBF
:1001E000D80750F080E091E06CE471E0F5D5C801EB
:1001F0000197F1F7C0E0D0E083E391E0B2D411D4ED
:10020000ECCFDA01923049F0933061F09130F9F49B
:10021000ECEAF0E022E130E01EC0EEEBF0E02EE38D
:1002200030E019C0813049F0813018F0823079F423
:1002300008C0ECEFF0E0849107C0E0E0F1E08491C9
:1002400003C0EAE1F1E08491282F30E004C0E0E04F
:10025000F0E020E030E0ED93FC93C9010895382FE1
:10026000282F2CC02093E900231721F4762F942FF8
:1002700050E006C07091EC009091ED005091F000BC
:1002800091FF1BC08091EB008E7F8093EB008091EB
:10029000ED008D7F8093ED008091EB008160809375
:1002A000EB007093EC009093ED005093F000809180
:1002B000EE0087FD02C080E008952F5F273090F2A6
:1002C0003093E90081E0089580916F0188239CF4C8
:1002D00004C080916E018823B9F08091E80082FF0C
:1002E000F8CF8091E8008B778093E80008958091A3
:1002F0006E01882349F08091E80080FFF8CF80915B
:10030000E8008E778093E80008954091E4005091D2
:10031000E50024E68091EC0080FF24C08091E80095
:1003200080FD1EC080916E01882311F482E0089543
:10033000853011F483E008958091EB0085FF02C0C1
:1003400081E008958091E4009091E500841795077D
:1003500009F3222311F484E008952150AC01DACF8F
:1003600080E008958091E80082FFDCCFF9CFEF9222
:10037000FF920F931F934AD051D008ED10E0F8017F
:1003800080818F77808380818068808380818F7D6A
:10039000808319BC10926E0110926A0110926C0158
:1003A00010926B0180EEE82EF12CF70180818B7F9B
:1003B0008083F80180818160808380E060E042E09A
:1003C0004EDFE1EEF0E080818E7F8083E2EEF0E0B0
:1003D000808181608083808188608083F701808153
:1003E0008E7F8083F8018081806180831F910F91CF
:1003F000FF90EF900895E7EDF0E0808181608083C9
:1004000084E082BF81E080936D01B1CFE8EDF0E040
:1004100080818E7F80831092E20008951092DA002E
:100420001092E10008951F920F920FB60F921124BF
:100430002F933F934F935F936F937F938F939F93EC
:10044000AF93BF93EF93FF938091E10082FF0AC0C7
:100450008091E20082FF06C08091E1008B7F809353
:10046000E100DED28091DA0080FF1DC08091D800CB
:1004700080FF19C08091DA008E7F8093DA0080912E
:10048000D90080FF0CC080E189BD82E189BD09B43B
:1004900000FEFDCF81E080936E016ADE04C019BCCE
:1004A00010926E0166DE8091E10080FF18C080919D
:1004B000E20080FF14C08091E2008E7F8093E20012
:1004C0008091E20080618093E2008091D800806298
:1004D0008093D80019BC85E080936E01A1D28091F1
:1004E000E10084FF2DC08091E20084FF29C080E1FB
:1004F00089BD82E189BD09B400FEFDCF8091D8009D
:100500008F7D8093D8008091E1008F7E8093E10001
:100510008091E2008F7E8093E2008091E200816012
:100520008093E20080916A01882331F48091E30096
:1005300087FD02C081E001C084E080936E0170D22B
:100540008091E10083FF22C08091E20083FF1EC002
:100550008091E100877F8093E10082E080936E01CB
:1005600010926A018091E1008E7F8093E10080917A
:10057000E2008E7F8093E2008091E20080618093B0
:10058000E20080E060E042E06ADE4AD2FF91EF9153
:10059000BF91AF919F918F917F916F915F914F919B
:1005A0003F912F910F900FBE0F901F9018959C01B7
:1005B00040917501509176014617570718F4F901DB
:1005C00090E045C06115710511F0AB01F8CF809145
:1005D000E8008E778093E80040E050E0F0CF809113
:1005E0006E01882309F445C0853009F444C0809128
:1005F000E80083FF02C081E008958091E80082FD59
:1006000032C08091E80080FF22C08091F300909179
:10061000F200782F60E0292F30E0262B372B07C01F
:1006200081918093F100415050402F5F3F4F411521
:10063000510519F02830310598F390E02830310544
:1006400009F491E08091E8008E778093E8004115ED
:10065000510529F6992319F606C080916E01882369
:1006600041F0853041F08091E80082FFF6CF80E0D4
:10067000089582E0089583E008959C0140917501FA
:10068000509176014617570718F4F90190E046C0DB
:100690006115710511F0AB01F8CF8091E8008E77FC
:1006A0008093E80040E050E0F0CF80916E01882315
:1006B00009F447C0853009F446C08091E80083FF03
:1006C00002C081E008958091E80082FD34C08091ED
:1006D000E80080FF23C08091F3009091F200782F12
:1006E00060E0292F30E0262B372B08C084918093BF
:1006F000F1003196415050402F5F3F4F4115510559
:1007000019F02830310590F390E02830310509F4D4
:1007100091E08091E8008E778093E80041155105C3
:1007200021F6992309F0C1CF06C080916E0188237C
:1007300041F0853041F08091E80082FFF6CF80E003
:10074000089582E0089583E008950F931F93DF9347
:10075000CF93CDB7DEB7AC970FB6F894DEBF0FBE20
:10076000CDBFEFE6F1E08091F100819321E0E73722
:10077000F207C9F7FFDC8091E80083FF38C1809160
:100780006F0130917001353009F487C0363040F484
:100790003130C9F1313070F0333009F028C133C045
:1007A000383009F4F6C0393009F405C1363009F0A3
:1007B0001EC197C0803821F0823809F018C108C0E6
:1007C00090916B0180916C01882399F0926011C027
:1007D000809173018F708093E9008091EB0090E02D
:1007E00025E0969587952A95E1F7982F91701092BC
:1007F000E9008091E800877F8093E8009093F10002
:100800001092F100D1C0882319F0823009F0EFC0B6
:1008100090E08F719070009721F0029709F0E7C087
:100820000CC080917101813009F0E1C010926C011F
:10083000333069F580936C012AC08091710188235F
:1008400031F5209173012F7009F4D1C02093E90094
:100850008091EB0080FF1BC0333021F48091EB00CE
:10086000806213C08091EB0080618093EB0081E097
:1008700090E002C0880F991F2A95E2F78093EA0062
:100880001092EA008091EB0088608093EB00109258
:10089000E9008091E800877F8AC0882309F0A7C01B
:1008A000109171011F770FB7F8948091E800877F4E
:1008B0008093E80009DD8091E80080FFFCCF809103
:1008C000E3008078812B8093E30080688093E300CD
:1008D000112311F482E001C083E080936E010FBF09
:1008E00086C08058823008F082C08091710190915A
:1008F000720123E08C3D920709F033C083E08C83C2
:100900008AE28B837FB7F894DE0115966EE040E0B3
:1009100050E011E2E62FF0E010935700849140FF81
:1009200003C082958F706F5F8F70282F30E08A3000
:1009300018F0C901C79602C0C901C0968D939D9356
:100940004F5F5F4F4431510529F77FBF8091E80029
:10095000877F8093E800CE0103966AE270E027DE8D
:1009600012C060917301AE014F5F5F4F4ADCBC0162
:10097000009709F43CC08091E800877F8093E800ED
:1009800089819A817ADE8091E8008B778093E800F4
:100990002EC0803861F58091E800877F8093E80061
:1009A00080916A018093F1008091E8008E778093B6
:1009B000E8008ADC1CC08823D1F490917101923048
:1009C000B0F48091E800877F8093E80090936A01FB
:1009D0007BDC80916A01882331F48091E30087FDFC
:1009E00002C081E001C084E080936E01C6DB80918B
:1009F000E80083FF0AC08091EB0080628093EB00E7
:100A00008091E800877F8093E800AC960FB6F89459
:100A1000DEBF0FBECDBFCF91DF911F910F91089523
:100A200008951F9380916E01882361F01091E90071
:100A30001092E9008091E80083FF01C086DE1F70FC
:100A40001093E9001F910895FC0180916E0184309C
:100A500091F581899289A389B4890097A105B1058F
:100A600051F185818093E9008091E80082FF23C0E5
:100A70004091F3002091F200942F80E030E0822B2F
:100A8000932B892B19F46FEF7FEF04C08091F10055
:100A9000682F70E04091F3002091F200942F80E0E5
:100AA00030E0822B932B892B41F48091E8008B77E7
:100AB0008093E80002C06FEF7FEFCB010895FB0148
:100AC0002EE0DB011D922A95E9F723E0238326EE31
:100AD00035E03187208722E735E033872287958705
:100AE00084870895FC0184859585AEDF9C0197FF7E
:100AF00002C02EEF3FEFC90108950895FC018091D7
:100B00006E01843049F581899289A389B48900975F
:100B1000A105B10509F181818093E9004091F300BD
:100B20002091F200942F80E030E0822B932B892BD0
:100B3000A9F09091E8008091E8008E778093E8001A
:100B400095FD0CC0E2DB982F882349F48091E800E2
:100B50008E778093E80003C092E001C090E0892F77
:100B60000895FC0180916E01843051F4818992894D
:100B7000A389B4890097A105B10511F0CF01BECFBB
:100B800008951F93FC01162F80916E018430D9F4D3
:100B900081899289A389B4890097A105B10599F04B
:100BA00081818093E9008091E80085FD08C08091F3
:100BB000E8008E778093E800A8DB882329F410935F
:100BC000F10080E001C082E01F910895282FFB0111
:100BD00084859585622FD5DF882319F420E030E0E5
:100BE00002C02FEF3FEFC90108951F93CF93DF930A
:100BF000EC010D96FC018BE0DF011D928A95E9F76F
:100C000011E08981181729F46A817B818C8152E077
:100C100010C08D81181731F46E817F81888552E074
:100C200030E008C08985181739F56A857B858C8581
:100C300053E030E8882311F440E001C044E020E0B4
:100C400088E090E003C02F5F880F991F86179707F1
:100C5000D0F3852F90E056E0880F991F5A95E1F761
:100C600060E0311161E0682B42602295207F422BC9
:100C7000812FF5DA882329F01F5F173009F0C1CFE3
:100C800081E0DF91CF911F910895CF93DF93EC0125
:100C90008091E80083FF9DC0888190E020917301DE
:100CA000309174012817390709F093C080917001C1
:100CB000813269F0823220F4803209F08AC03CC06F
:100CC000823209F465C0833209F083C074C0809118
:100CD0006F01813A09F07DC08091E800877F8093A1
:100CE000E8008091E80080FFFCCF89899A89AB8970
:100CF000BC898093F100292F3A2F4B2F5527209341
:100D0000F1009D01442755272093F1008B2F99274F
:100D1000AA27BB278093F1008D898093F1008E89EB
:100D20008093F1008F898093F1008091E8008E77A5
:100D30008093E800C9DA4DC080916F01813209F0DB
:100D400048C08091E800877F8093E8008091E800A8
:100D500082FFFCCF8091F1009091F1002091F10091
:100D60003091F100898B9A8B2B8B3C8B8091F10019
:100D70008D8B8091F1008E8B8091F1008F8B809113
:100D8000E8008B778093E8009FDACE01B6DE21C0C1
:100D900080916F018132E9F48091E800877F809330
:100DA000E80092DA80917101909172019E878D879F
:100DB000CE01A3DE0EC080916F01813251F480918B
:100DC000E800877F8093E8007FDACE0160917101AF
:100DD00094DEDF91CF910895EF92FF920F931F93CE
:100DE000CF93DF937C018B01DB0113968C9181FD06
:100DF00003C0CFEFDFEF13C0C0E0D0E00BC0D801DD
:100E00001896ED91FC911997B8010995892B11F06D
:100E1000CFEFDFEFF70181917F01882381F7CE01CA
:100E2000CDB7DEB7E6E00CC02A88398848885F84F1
:100E30006E847D848C849B84AA84B984C884DF807A
:100E4000EE80FD800C811B81AA81B981CE0FD11D5E
:100E50000FB6F894DEBF0FBECDBFED010895F89434
:020E6000FFCFC2
:100E620048656C6C6F2066726F6D20537061726B97
:100E720046756E2E20596F7520676F742069742035
:100E8200746F20776F726B2C20636F6E6772617460
:100E9200732E00000310000004100000020800007E
:0C0EA20000000000000000000000000044
:00000001FF
